{
  "contractName": "ConsumerRole",
  "abi": [
    {
      "inputs": [],
      "payable": false,
      "stateMutability": "nonpayable",
      "type": "constructor"
    },
    {
      "anonymous": false,
      "inputs": [
        {
          "indexed": true,
          "internalType": "address",
          "name": "account",
          "type": "address"
        }
      ],
      "name": "ConsumerAdded",
      "type": "event"
    },
    {
      "anonymous": false,
      "inputs": [
        {
          "indexed": true,
          "internalType": "address",
          "name": "account",
          "type": "address"
        }
      ],
      "name": "ConsumerRemoved",
      "type": "event"
    },
    {
      "constant": true,
      "inputs": [
        {
          "internalType": "address",
          "name": "account",
          "type": "address"
        }
      ],
      "name": "isConsumer",
      "outputs": [
        {
          "internalType": "bool",
          "name": "",
          "type": "bool"
        }
      ],
      "payable": false,
      "stateMutability": "view",
      "type": "function"
    },
    {
      "constant": false,
      "inputs": [
        {
          "internalType": "address",
          "name": "account",
          "type": "address"
        }
      ],
      "name": "addConsumer",
      "outputs": [],
      "payable": false,
      "stateMutability": "nonpayable",
      "type": "function"
    },
    {
      "constant": false,
      "inputs": [
        {
          "internalType": "address",
          "name": "account",
          "type": "address"
        }
      ],
      "name": "renounceConsumer",
      "outputs": [],
      "payable": false,
      "stateMutability": "nonpayable",
      "type": "function"
    }
  ],
  "bytecode": "0x608060405234801561001057600080fd5b506100203361002560201b60201c565b6101c7565b61003d81600061008360201b6102b71790919060201c565b8073ffffffffffffffffffffffffffffffffffffffff167f28b26e7a3d20aedbc5f8f2ebf7da671c0491723a2b78f47a097b0e46dee0714260405160405180910390a250565b600073ffffffffffffffffffffffffffffffffffffffff168173ffffffffffffffffffffffffffffffffffffffff1614156100bd57600080fd5b6100cd828261013560201b60201c565b156100d757600080fd5b60018260000160008373ffffffffffffffffffffffffffffffffffffffff1673ffffffffffffffffffffffffffffffffffffffff16815260200190815260200160002060006101000a81548160ff0219169083151502179055505050565b60008073ffffffffffffffffffffffffffffffffffffffff168273ffffffffffffffffffffffffffffffffffffffff16141561017057600080fd5b8260000160008373ffffffffffffffffffffffffffffffffffffffff1673ffffffffffffffffffffffffffffffffffffffff16815260200190815260200160002060009054906101000a900460ff16905092915050565b610443806101d66000396000f3fe608060405234801561001057600080fd5b50600436106100415760003560e01c8063112940f914610046578063834ff7391461008a578063f487d48d146100e6575b600080fd5b6100886004803603602081101561005c57600080fd5b81019080803573ffffffffffffffffffffffffffffffffffffffff16906020019092919050505061012a565b005b6100cc600480360360208110156100a057600080fd5b81019080803573ffffffffffffffffffffffffffffffffffffffff169060200190929190505050610148565b604051808215151515815260200191505060405180910390f35b610128600480360360208110156100fc57600080fd5b81019080803573ffffffffffffffffffffffffffffffffffffffff169060200190929190505050610165565b005b61013333610148565b61013c57600080fd5b61014581610171565b50565b600061015e8260006101cb90919063ffffffff16565b9050919050565b61016e8161025d565b50565b6101858160006102b790919063ffffffff16565b8073ffffffffffffffffffffffffffffffffffffffff167f28b26e7a3d20aedbc5f8f2ebf7da671c0491723a2b78f47a097b0e46dee0714260405160405180910390a250565b60008073ffffffffffffffffffffffffffffffffffffffff168273ffffffffffffffffffffffffffffffffffffffff16141561020657600080fd5b8260000160008373ffffffffffffffffffffffffffffffffffffffff1673ffffffffffffffffffffffffffffffffffffffff16815260200190815260200160002060009054906101000a900460ff16905092915050565b61027181600061036390919063ffffffff16565b8073ffffffffffffffffffffffffffffffffffffffff167fe3f5ed5f263f1f01764a96edfc7d025f511ec5f7d180e8816908b78bcf74f09860405160405180910390a250565b600073ffffffffffffffffffffffffffffffffffffffff168173ffffffffffffffffffffffffffffffffffffffff1614156102f157600080fd5b6102fb82826101cb565b1561030557600080fd5b60018260000160008373ffffffffffffffffffffffffffffffffffffffff1673ffffffffffffffffffffffffffffffffffffffff16815260200190815260200160002060006101000a81548160ff0219169083151502179055505050565b600073ffffffffffffffffffffffffffffffffffffffff168173ffffffffffffffffffffffffffffffffffffffff16141561039d57600080fd5b6103a782826101cb565b6103b057600080fd5b60008260000160008373ffffffffffffffffffffffffffffffffffffffff1673ffffffffffffffffffffffffffffffffffffffff16815260200190815260200160002060006101000a81548160ff021916908315150217905550505056fea265627a7a72315820b84882ad1bc65eeaca8941c5896849dd760ee4bf1bcf9d90bf3c4bf820a883ef64736f6c63430005100032",
  "source": "pragma solidity >=0.4.24;\n\n// Import the library 'Roles'\nimport \"./Roles.sol\";\n\n// Define a contract 'ConsumerRole' to manage this role - add, remove, check\ncontract ConsumerRole {\n  using Roles for Roles.Role;\n  \n  // Define 2 events, one for Adding, and other for Removing\n  event ConsumerAdded(address indexed account);\n  event ConsumerRemoved(address indexed account);\n\n  // Define a struct 'consumers' by inheriting from 'Roles' library, struct Role\n  Roles.Role private consumer;\n\n  // In the constructor make the address that deploys this contract the 1st consumer\n  constructor() public {\n    _addConsumer(msg.sender);  \n  }\n\n  // Define a modifier that checks to see if msg.sender has the appropriate role\n  modifier onlyConsumer() {\n    require(isConsumer(msg.sender));\n    _;\n  }\n\n  // Define a function 'isConsumer' to check this role\n  function isConsumer(address account) public view returns (bool) {\n    return consumer.has(account);\n  }\n\n  // Define a function 'addConsumer' that adds this role\n  function addConsumer(address account) public onlyConsumer {\n    _addConsumer(account);\n  }\n\n  // Define a function 'renounceConsumer' to renounce this role\n  function renounceConsumer(address account) public {\n    _removeConsumer(account);\n  }\n\n  // Define an internal function '_addConsumer' to add this role, called by 'addConsumer'\n  function _addConsumer(address account) internal {\n    consumer.add(account);\n    emit ConsumerAdded(account);\n  }\n\n  // Define an internal function '_removeConsumer' to remove this role, called by 'removeConsumer'\n  function _removeConsumer(address account) internal {\n    consumer.remove(account);\n    emit ConsumerRemoved(account);\n  }\n}",
  "sourcePath": "/Users/mymac/Downloads/nd1309-Project-6b-Example-Template-master/project-6/contracts/coffeeaccesscontrol/ConsumerRole.sol",
  "compiler": {
    "name": "solc",
    "version": "0.5.16+commit.9c3226ce.Emscripten.clang"
  },
  "schemaVersion": "3.3.4",
  "updatedAt": "2021-04-03T10:40:26.508Z",
  "networkType": "ethereum",
  "devdoc": {
    "methods": {}
  },
  "userdoc": {
    "methods": {}
  }
}